:020000040800F2
:10000000800600204501000851120008350D000847
:100010004D12000857090008C32300080000000023
:100020000000000000000000000000002116000891
:10003000C1090008000000009514000835170008E9
:10004000D52300085F0100085F0100085F01000878
:100050005F0100085F0100085F0100085F01000800
:100060005F0100085F0100085F0100085F010008F0
:100070005F0100085F0100085F0100085F010008E0
:100080005F0100085F0100085F0100085F010008D0
:100090005F0100085F0100085F0100085F010008C0
:1000A0005F0100080D1D00085F0100085F010008E6
:1000B000251D0008551D0008D51D00085F0100081A
:1000C0005F0100085F0100085F0100085F01000890
:1000D0005F010008A5200008E1200008CD210008EC
:1000E0005F0100085F0100085F0100085F01000870
:1000F0005F0100085F0100085F0100085F01000860
:100100005F0100085F010008091E00085F01000888
:10011000611F00089D1F00083D1E00085F010008C8
:100120005F0100085F0100085F0100085F0100082F
:10013000DFF80CD000F0F2FA004800470D2C000860
:10014000800600200648804706480047FEE7FEE795
:10015000FEE7FEE7FEE7FEE7FEE7FEE7FEE7FEE777
:10016000391700083101000840EA01039B0703D05A
:1001700009E008C9121F08C0042AFAD203E011F8E6
:10018000013B00F8013B521EF9D27047D2B201E0A8
:1001900000F8012B491EFBD270470022F6E710B58C
:1001A00013460A4604461946FFF7F0FF204610BDE5
:1001B000F0B480EA0102D40F4200B2EB410F02D248
:1001C0000246084611464A0042D0C30DDDB2C1F3D3
:1001D000C752AD1A202D35DAC1F3160141F40002E1
:1001E00004B15242C5F1200602FA06F12A41104438
:1001F000B3EBD05F23D0C4B1012DA0EBC35009DC19
:10020000F0BC4FF0004202EAC352DBB200F500003E
:1002100000F0F9B9400000F1807000EBC350A0F18C
:10022000807040EAD170490009E0490841EAC07194
:10023000A0EBC35000F50000400800EBC350F0BC39
:1002400000F0D8B96142012202EB4101001BF6E740
:10025000F0BC704781F00041AAE780F00040A7E7BA
:100260002DE9FE4F804681EA0300C00F0C46009046
:1002700021F0004123F00045B8EB0200A94105D26E
:100280004046214690461C460B46024623F000405D
:10029000104347D0270DC7F30A00C3F30A51029059
:1002A000401A019040286BDAC3F3130040F4801B1E
:1002B0000098924620B10023D2EB030A63EB0B0BAC
:1002C00001985946C0F14002504600F062F90646D6
:1002D0000D4650465946019A00F07AF910EB080095
:1002E0006141002487EA115284EAE7731A4340D03F
:1002F000009A62B3019A012A4FEA075215DC001BEB
:1003000061EB02014FF0004202EA0752CDE90042E0
:10031000001C41F5801132462B4600F0B1F903B0C4
:10032000BDE8F08F40462146F9E7001B61EB020172
:10033000001C41F5801300185B412018A2F500173E
:1003400047EB030140EAD570B6196D4111E06D0825
:100350004FEA360645EAC0754FEA0752001B61EBCB
:100360000201001C41F5801149084FEA30000019D4
:10037000514132462B4603B0BDE8F04F00F071B951
:100380000098012240000023D0EB020263EBE073EF
:10039000009821464FEAE074B8EB000061EB0401DD
:1003A000E9E783F000435BE781F0004158E72DE97E
:1003B000FE4F81EA030404F0004421F00041009460
:1003C0004FF0000B23F0004350EA01045ED052EAE4
:1003D00003045BD0C3F30A54C1F30A552C44A4F2BE
:1003E000F3340194A0FB0254C1F3130141F48011D2
:1003F000C3F3130343F4801301FB024400FB034ED9
:10040000840A970A44EA815447EA8357A4FB0768A1
:1004100002958D0A05FB07854FEA932C04FB0C54CB
:100420002705029D4FEA065847EA1637B5EB08053F
:100430006EEB070C870E920E47EA811742EA831291
:10044000A7FB0201B6EB0B0164EB00042B0D43EAA2
:100450000C335E1844EB1C50DA465146E7FB0201B0
:10046000C5F313044FEA0B3343EA14534FEA043243
:10047000019C43EA0603A4F10C040294009CCDE91C
:1004800000B400F0FDF803B0BDE8F08F0020014695
:10049000F9E796230022114600F0B5B820F000409D
:1004A000C10DC0F3160040F400007F2901DA0020DE
:1004B0007047962903DCC1F19601C8407047963910
:1004C00088407047C1F30A5210B5C1F3130140F2DE
:1004D000FF3341F480119A4201DA002010BD40F24E
:1004E00033439A42A2F2334203DC524200F060F8F6
:1004F00010BD904010BD00F0004230F000400AD026
:10050000C10D01F56071C0F3160042EA0151C20845
:10051000400711437047002001467047002801DB67
:10052000C0F10040002901DBC1F100418142704768
:100530002DE9F05F0546002092469B468846064618
:10054000814640241BE0284641464746224600F0AB
:100550002FF853465A46C01A914110D311461846F7
:10056000224600F016F82D1A67EB01084F46224686
:100570000120002100F00DF817EB00094E41201E6C
:10058000A4F10104DFDC484631462A464346BDE873
:10059000F09F202A04DB203A00FA02F10020704785
:1005A0009140C2F1200320FA03F3194390407047B1
:1005B000202A04DB203A21FA02F00021704721FAB8
:1005C00002F3D040C2F1200291400843194670471F
:1005D000202A06DBCB17203A41FA02F043EAE07307
:1005E00006E041FA02F3D040C2F1200291400843F4
:1005F000194670470029A8BF7047401C490008BF32
:1006000020F00100704710B4B0FA80FC00FA0CF042
:1006100050EA010404BF10BC704749B1CCF120047A
:1006200021FA04F411FA0CF118BF01212143084307
:10063000A3EB0C01CB1D4FEA00614FEA102042BF33
:10064000002010BC704700EBC35010440029A4BF29
:1006500010BC7047401C490008BF20F0010010BCCE
:10066000704710B5141E73F1000408DA401C41F104
:10067000000192185B411A4301D120F0010010BD26
:100680002DE9F04D92469B4611B1B1FA81F202E09C
:10069000B0FA80F220329046FFF77BFF04460F4607
:1006A00040EA0A0041EA0B0153465A46084313D078
:1006B000114653EA010019D0C8F140025046FFF735
:1006C00077FF05460E46504659464246FFF761FF02
:1006D000084305D0012004E020463946BDE8F08DEE
:1006E0000020054346EAE0762C4337430A98630529
:1006F000E40AA0EB08000022FD0A44EA47540A304D
:1007000002D500200146E9E7010510196941DDE93C
:10071000084500196941BDE8F04DA2E7064C074DB8
:1007200006E0E06840F0010394E8070098471034C1
:10073000AC42F6D3FFF700FDEC5100080C52000864
:1007400021B1826842F00102826003E0826822F0F7
:10075000010282607047000010B5044612488442CE
:1007600008D10121401500F0C3FE0021601500F002
:10077000BFFE17E00D48844208D10121001500F0AA
:10078000B7FE0021201500F0B3FE0BE008488442BC
:1007900008D10121C80300F0ABFE00214FF4004056
:1007A00000F0A6FE10BD000000240140002801401A
:1007B000003C0140014600208A6802F004020AB1B0
:1007C000012000E000207047014600208A6802F006
:1007D00008020AB1012000E00020704730B502464F
:1007E0000020002350680F4C20400D790C6844EA2B
:1007F00005242043506090680B4C2040D1E90254FE
:100800002C434D7944EA450420439060D06A20F49B
:1008100070000C7C641EE4B2234340EA0350D062B3
:1008200030BD0000FFFEF0FFFDF7F1FF816841F0F1
:10083000080181607047816841F004018160704760
:1008400000B587B001214FF4067000F041FE4FF46F
:10085000004000F021FE1E20ADF8040000208DF8BD
:10086000070001A9174800F0ACF81748FFF774FF1C
:10087000002002908DF80C008DF80D004FF46020E0
:1008800004900020059001208DF8180002A90E4860
:10089000FFF7A4FF01210C48FFF752FF0A48FFF7BA
:1008A000C5FF00BF0848FFF78FFF0028FAD10648B0
:1008B000FFF7C1FF00BF0448FFF77CFF0028FAD113
:1008C00007B000BD001001400024014008B501211F
:1008D000102000F0FDFD4020ADF8000010208DF844
:1008E000030003208DF802006946054800F069F80E
:1008F0004021034800F0F0F801200249086008BDDB
:10090000001001409801224210B5044602F038F967
:10091000462002F00BF902F05BF9012800D110BD6E
:10092000204602F003F902F053F9012801D1022018
:10093000F5E702F03DF90020F1E710B500F022FAEA
:1009400000F004F81020FFF7DFFF10BD10B5012004
:10095000FFF7DAFF10BD00BFFEE7000038B5012445
:100960004EF67D7000F0E4FA12A04EF67D731F2261
:100970000A210090142000F0C3F8C82002F022F8E9
:1009800011E04FF6FF7000F0D3FA002000F0D0FA2B
:100990004FF4784000F0CCFA4FF4FC6000F0C8FA55
:1009A0001F2000F0C5FA201EA4F10101CCB2E8D14D
:1009B00038BD0000436F6C6F722054657374000083
:1009C00070472DE9F0410246002500260020002353
:1009D0000024002791F803C00CF00F0591F803C024
:1009E0000CF0100CBCF1000F03D091F802C04CEADF
:1009F000050591F800C0BCF1000F31D0146800204B
:100A00002BE04FF0010C0CFA00F3B1F800C00CEA37
:100A100003069E4220D183004FF00F0C0CFA03F71F
:100A2000BC4305FA03FC4CEA040491F803C0BCF192
:100A3000280F06D14FF0010C0CFA00FCC2F814C0CC
:100A40000AE091F803C0BCF1480F05D14FF0010C4A
:100A50000CFA00FCC2F810C0401C0828D1D3146066
:100A6000B1F800C0BCF1FF0F34DD546800202EE067
:100A700000F1080C4FF0010808FA0CF3B1F800C0BF
:100A80000CEA03069E4221D183004FF00F0C0CFAB2
:100A900003F7BC4305FA03FC4CEA040491F803C0D5
:100AA000BCF1280F05D100F1080C08FA0CF8C2F8C7
:100AB000148091F803C0BCF1480F07D100F1080C75
:100AC0004FF0010808FA0CF8C2F81080401C082802
:100AD000CED35460BDE8F081416170470161704739
:100AE00010B541F61F41092001F044F94FF41650AA
:100AF00001F014FB02F01AF901F0DEFF10BD000056
:100B00002DE9F84F0746884693469A46DDF8289027
:100B10000097B3E099F8000080283DDA99F800606A
:100B20000D2E05D1009F08F110001FFA80F830E06B
:100B3000202E03DDA6F1200086B200E0002600246E
:100B400022E000251CE004EB06105049085C8021DF
:100B50002941084040B108EB040291B27A1990B2E1
:100B60005A4600F0D7F809E0D34507D008EB040255
:100B700091B27A1990B2524600F0CCF8681CC5B216
:100B8000082DE0DB601CC4B2102CDADB07F1080092
:100B900087B209F1010971E0002668E006EB061052
:100BA0003B4911F8100099F8001088425DD106EB1E
:100BB0000610374901EB4000407899F8011088424F
:100BC00053D100244FE0002520E006EB0610304909
:100BD00001EB4000801C10F81410802028410140D7
:100BE00041B108EB040291B27A1990B25A4600F072
:100BF00091F809E0D34507D008EB040291B27A19C5
:100C000090B2524600F086F8681CC5B2082DDCDBB5
:100C1000002524E006EB06101D4901EB4000801C76
:100C2000012101EB4401405C80212941084048B189
:100C300008EB040291B27A19083290B25A4600F0D9
:100C400069F80AE0D34508D008EB040291B27A199A
:100C5000083290B2524600F05DF8681CC5B2082D0B
:100C6000D8DB601CC4B2102CADDB701C86B2322EF7
:100C700094DB09F1020907F1100087B299F800002E
:100C800000287FF447AFBDE8F88F00003C2D000836
:100C9000FB4400082DE9F04F0746884692469946E6
:100CA000002531E000242BE01949099801EBC01020
:100CB00000EB850010F804B000261DE080203041D4
:100CC00000EA0B0050B108EB050291B207EBC40239
:100CD000324490B2524600F01DF80BE0CA4509D0EC
:100CE00008EB050291B207EBC402324490B24A46C7
:100CF00000F010F8701CC6B2082EDFDB601CC4B216
:100D0000042CD1DB681CC5B2202DCBDBBDE8F08FF5
:100D10007A3D000870B504460D461646681C83B23D
:100D2000601C82B22946204600F03EFA304600F0B0
:100D3000C1F870BD00BFFEE710B501F021FE4FF411
:100D4000A06000F0BFFA4FF4E13001F05BF900F071
:100D5000C9F800F069F800F007FB00F002F9022082
:100D6000074908604FF6FF7000F0E2F8FFF7AEFDAC
:100D7000FFF7E3FDFFF764FDFFF7B2FE10BD0000D3
:100D80001008014008B50121082000F0A1FBC02097
:100D9000ADF8000003208DF8020014208DF8030048
:100DA00069460348FFF70DFE01F002FF08BD000091
:100DB000000C014010B54FF480510948FFF78EFE3A
:100DC0004FF400510648FFF789FE4FF400510448E4
:100DD000FFF782FE4FF480510148FFF77DFE10BD02
:100DE000000C014010B54FF480510748FFF776FE24
:100DF0004FF400510448FFF76FFE4FF400510248D2
:100E0000FFF76CFE10BD0000000C014010B54FF460
:100E100080510448FFF762FE4FF480510148FFF70C
:100E20005BFE10BD000C014008B50121442000F01C
:100E30004FFB1820ADF8000048208DF803006946EC
:100E40000648FFF7BEFD0120ADF8000028208DF810
:100E5000030069460248FFF7B4FD08BD00180140D1
:100E60000008014008B50121082000F031FB0320F3
:100E7000ADF800008DF8020010208DF803006946DF
:100E80000A48FFF79EFD0121042000F021FBB2205B
:100E9000ADF8000003208DF8020010208DF803004B
:100EA00069460348FFF78DFD08BD0000000C0140B6
:100EB0000008014010B504461020084908600220CF
:100EC00007490860201200F08DFBE0B200F08AFBB9
:100ED00010200249091F086010BD000014080140DD
:100EE000100C014008B50121482000F0F1FA302033
:100EF000ADF8000010208DF8030003208DF80200EB
:100F000069460948FFF75DFD30210748FFF7E6FD18
:100F10002020ADF8000069460448FFF752FD20216B
:100F20000248FFF7DBFD08BD000C0140001801403E
:100F300070B506469F237F220021084600F034F951
:100F40002C2000F06FF9002408E0002503E0304673
:100F5000FFF7B0FF6D1CA02DF9D3641C802CF4D3D7
:100F600070BD10B5FFF77EFF00F00CF9112000F006
:100F700059F9782001F026FDB12000F053F9012045
:100F800000F03CF92C2000F039F92D2000F036F962
:100F9000B22000F047F9012000F030F92C2000F0D9
:100FA0002DF92D2000F02AF9B32000F03BF90120A3
:100FB00000F024F92C2000F021F92D2000F01EF97A
:100FC000012000F01BF92C2000F018F92D2000F072
:100FD00015F9B42000F026F9072000F00FF9C02021
:100FE00000F020F9A22000F009F9022000F006F933
:100FF000842000F003F9C12000F014F9C52000F0AE
:10100000FDF8C22000F00EF90A2000F0F7F80020E9
:1010100000F0F4F8C32000F005F98A2000F0EEF8A3
:101020002A2000F0EBF8C42000F0FCF88A2000F041
:10103000E5F8EE2000F0E2F8C52000F0F3F80E200D
:1010400000F0DCF8362000F0EDF8C02000F0D6F813
:10105000E02000F0E7F80F2000F0D0F81A2000F0B0
:10106000CDF80F2000F0CAF8182000F0C7F82F20A4
:1010700000F0C4F8282000F0C1F8202000F0BEF8ED
:10108000222000F0BBF81F2000F0B8F81B2000F071
:10109000B5F8232000F0B2F8372000F0AFF80020B8
:1010A00000F0ACF8072000F0A9F8022000F0A6F844
:1010B000102000F0A3F8E12000F0B4F80F2000F0B9
:1010C0009DF81B2000F09AF80F2000F097F81720E9
:1010D00000F094F8332000F091F82C2000F08EF806
:1010E000292000F08BF82E2000F088F8302000F046
:1010F00085F8302000F082F8392000F07FF83F209A
:1011000000F07CF8002000F079F8072000F076F875
:10111000032000F073F8102000F070F82A2000F08F
:1011200081F8002000F06AF8002000F067F8002045
:1011300000F064F87F2000F061F82B2000F072F8D6
:10114000002000F05BF8002000F058F8002000F0CC
:1011500055F89F2000F052F8F02000F063F80120CD
:1011600000F04CF8F62000F05DF8002000F046F8A2
:101170003A2000F057F8052000F040F8292000F050
:1011800051F810BD10B5012006490860642001F037
:1011900019FC01200349091F0860322001F012FCEC
:1011A00010BD0000140C0140F0B505460C46164673
:1011B0001F462A2000F036F8002000F01FF8E8B2A1
:1011C00000F01CF8002000F019F8B11CC8B200F0C3
:1011D00015F82B2000F026F8002000F00FF8E0B200
:1011E00000F00CF8002000F009F8791CC8B200F0FB
:1011F00005F82C2000F016F8F0BD000010B50446EC
:10120000102006490860022005490860204600F0C9
:10121000E9F910200149091F086010BD14080140B8
:10122000100C014010B50446102006490860022049
:1012300005490860204600F0D5F910200149091F32
:10124000086010BD14080140140C014000BFFEE707
:101250007047000070B5002100230F22C47804B34A
:10126000154C246804F4E064C4F5E064210AC1F17B
:101270000403CA40447804FA03F1847814402143FB
:1012800009010E4C0678A155047804F01F050124CD
:10129000AC4005786D11AD0005F1E025C5F80041C1
:1012A00009E0047804F01F050124AC40044D0678E1
:1012B000761145F8264070BD0CED00E000E400E03A
:1012C00080E100E002490143024A116070470000DA
:1012D0000000FA050CED00E0F8B500244EF67D7034
:1012E000FFF726FE1CA04EF67D734FF478421421C2
:1012F00000901020FFF704FC4FF47A7001F062FBBD
:101300004EF67D70FFF714FE00BF21E0032094FB32
:10131000F0F04001401D85B2032094FBF0F100FB8A
:10132000114000EB80004FF6FF7101EAC0060D4945
:10133000601C085C4EF67D734FF47842294600909D
:101340003046FFF7A7FC642001F03CFB601CC4B2F0
:101350000A2CDBDBF8BD00004E756D2054657374FC
:10136000000000008000002008B50121082000F0E6
:10137000AFF84FF44050ADF8000010208DF8030096
:1013800003208DF8020069463B48FFF71AFB4FF433
:1013900040513948FFF7A2FBC82001F013FB0021A0
:1013A000AE2000F06BF80021084600F067F800213D
:1013B000102000F063F80021402000F05FF80021C9
:1013C000B02000F05BF80021812000F057F80021E8
:1013D000FF2000F053F80021A12000F04FF8002179
:1013E000A62000F04BF80021A82000F047F80021CB
:1013F0003F2000F043F80021C82000F03FF8002112
:10140000D32000F03BF80021084600F037F8002117
:10141000D52000F033F80021802000F02FF80021C3
:10142000D82000F02BF80021052000F027F800213B
:10143000D92000F023F80021F12000F01FF800214E
:10144000DA2000F01BF80021122000F017F800212C
:10145000DB2000F013F80021302000F00FF800210D
:101460008D2000F00BF80021142000F007F8002177
:10147000AF2000F003F808BD000C014070B5044631
:101480000D461DB1E0B201F013F802E0E0B200F049
:10149000F9FF70BD7047000001460020034A506804
:1014A00020F44040084350607047000000100240A4
:1014B00029B1064AD2690243044BDA6104E0034AC7
:1014C000D2698243014BDA6170470000001002408C
:1014D00029B1064A92690243044B9A6104E0034A27
:1014E00092698243014B9A617047000000100240EC
:1014F00029B1064AD2680243044BDA6004E0034A89
:10150000D2688243014BDA6070470000001002404D
:1015100030B500210022002400232D4D6D6805F018
:101520000C0121B1042905D0082923D105E0294D5A
:10153000056022E0274D05601FE0254D6D6805F42C
:101540007012234D6D6805F48034022505EB92423C
:101550001CB9214D554305600BE01D4D6D6805F428
:1015600000351DB11C4D5543056002E0194D554332
:10157000056002E0174D056000BF00BF144D6D68A7
:1015800005F0F0010909154D6B5C0568DD4045600B
:101590000F4D6D6805F4E061090A104D6B5C4568FC
:1015A000DD4085600A4D6D6805F46051C90A0B4D38
:1015B0006B5C4568DD40C560054D6D6805F44041D4
:1015C000890B074D6B5CC568B5FBF3F5056130BD54
:1015D0000010024000127A0000093D009000002037
:1015E000A00000200021082114E000F080021AB1C0
:1015F00080220A4B1A6003E08022084B1B1D1A60F0
:101600002022064B1B1D1A601B1F1A604206100E7B
:101610004A1ED1B20029E8DC7047000010080140E2
:10162000704710B500F002F810BD00000CB50020A6
:10163000019000903348006840F4803031490860E0
:1016400000BF3048006800F4003000900198401C52
:101650000190009818B90198B0F5A06FF1D1294810
:10166000006800F4003010B10120009001E000207B
:1016700000900098012843D12348006840F01000F2
:10168000214908600846006820F003000860084609
:10169000006840F0020008601A4840681949486034
:1016A0000846406848600846406840F480604860EA
:1016B0000846406820F47C1048600846406840F4C2
:1016C000E81048600846006840F08070086000BF7D
:1016D0000C48006800F000700028F9D00948406804
:1016E00020F00300074948600846406840F00200C7
:1016F000486000BF0348406800F00C000828F9D19A
:101700000CBD00000010024000200240042808D157
:101710004FF0E021096941F004014FF0E02211612E
:1017200007E04FF0E021096921F004014FF0E022C9
:10173000116170477047000010B51348006840F011
:1017400001001149086008464068104908400E49E8
:101750004860084600680E4908400B490860084682
:10176000006820F4802008600846406820F4FE00ED
:1017700048604FF41F008860FFF753FF4FF0006090
:101780000449086010BD0000001002400000FFF88E
:10179000FFFFF6FE08ED00E0F0B504460D461646E4
:1017A0001F462A20FFF73EFD0220FFF727FDA11C60
:1017B000C8B2FFF723FD0220FFF720FDB11CC8B21D
:1017C000FFF71CFD2B20FFF72DFD0120FFF716FD75
:1017D000691CC8B2FFF712FD0120FFF70FFD791C4D
:1017E000C8B2FFF70BFD2C20FFF71CFDF0BD000079
:1017F0002DE9F84F06460F46904699465F20009027
:10180000002437E004EB04101D49085C40452FD14B
:1018100007F10F0083B2F01D82B239463046FFF760
:10182000BBFF002521E004EB041015490844401CCF
:1018300010F805B04FF0000A12E00BF0800080288D
:1018400003D14846FFF736FB02E00A98FFF732FB68
:101850004FEA4B604FEA106B0AF1010000F0FF0AFB
:10186000BAF1080FE9DB681CC5B2102DDBDB04E020
:10187000601CC4B200988442C4DB00BFBDE8F88F8E
:10188000AA3500082DE9F84F0746884616469946BE
:1018900007200090002443E0307804EB0411234A31
:1018A00012F81110884239D1707804EB041102EB60
:1018B00041014978884231D108F10F0083B207F124
:1018C0000F0082B241463846FFF766FF002522E04E
:1018D00004EB0410154901EB4000801C10F805B022
:1018E0004FF0000A12E00BF08000802803D1484638
:1018F000FFF7E0FA02E00A98FFF7DCFA4FEA4B60E4
:101900004FEA106B0AF1010000F0FF0ABAF1080F6C
:10191000E9DB681CC5B2202DDADB04E0601CC4B230
:1019200000988442B8DB00BFBDE8F88FF93B00089F
:101930002DE9FF4F8DB0804691461C46DDF868A02A
:101940001C9E0025002700214846FEF7E7FD0CD22B
:1019500049460020FEF77EFC814600962D22404637
:101960001B9B0E99FFF744FF06E000962B22404692
:101970001B9B0E99FFF73CFF09E0052C03DD14B11A
:10198000601EC4B203E0AAF1010000F0FF0A04EBFC
:101990000A000728F1DC4846FEF780FD0546284688
:1019A000FEF777FD49460190FEF757FC8346FEF7A8
:1019B000A2FD504A504BCDE90201FEF751FC002236
:1019C0004E4BCDE90401FEF7F2FCCDE90601FEF72E
:1019D00079FD074642F21070B5FBF0F00A21B0FB2A
:1019E000F1F201FB120030308DF828004FF47A70CC
:1019F000B5FBF0F0B0FBF1F201FB120030308DF8D6
:101A000029006420B5FBF0F0B0FBF1F201FB1200FD
:101A100030308DF82A000A20B5FBF0F0B0FBF1F26F
:101A200001FB120030308DF82B000A20B5FBF0F1DD
:101A300000FB115030308DF82C0000208DF82D0067
:101A400042F21070B7FBF0F00A21B0FBF1F201FB9B
:101A5000120030308DF820004FF47A70B7FBF0F0B0
:101A6000B0FBF1F201FB120030308DF82100642050
:101A7000B7FBF0F0B0FBF1F201FB120030308DF853
:101A800022000A20B7FBF0F0B0FBF1F201FB1200DC
:101A900030308DF823000A20B7FBF0F100FB117005
:101AA00030308DF82400002008A901F80A00C4F1A4
:101AB00005010AABCA1808F1080188B200961B9B01
:101AC0000E9900F087F8611C08EBC10188B20096FE
:101AD0002E221B9B0E99FFF78BFEA11C08EBC10168
:101AE00088B2009608AA1B9B0E9900F073F811B0FB
:101AF000BDE8F08FF168E388B5F8D43E006AF8409D
:101B00002DE9FE430746884614461D46DDE90A9640
:101B1000002001900290002C09DA604204B24B468A
:101B20002D22414638460096FFF762FE06E04B46FE
:101B30002B22414638460096FFF75AFE052D00DD60
:101B4000052542F2107094FBF0F00A2190FBF1F2AF
:101B500001FB12003030C0B28DF804004FF47A70EF
:101B600094FBF0F090FBF1F201FB12003030C0B2B8
:101B70008DF80500642094FBF0F090FBF1F201FB7E
:101B800012003030C0B28DF806000A2094FBF0F04D
:101B900090FBF1F201FB12003030C0B28DF807006B
:101BA0000A2094FBF0F100FB11403030C0B28DF8F8
:101BB000080000208DF80900C5F1050101ABCA1825
:101BC00007F1080188B24B464146009600F002F842
:101BD000BDE8FE832DE9F84306468846144699463B
:101BE000089F00251BE0207880280CDA00972278D7
:101BF00006EBC50188B24B464146FFF7F9FD641C70
:101C0000681CC5B20BE006EBC50188B24B46224604
:101C100041460097FFF736FEA41CA81CC5B22078E9
:101C20000028E0D1BDE8F8830EB5FFF755FBFEF7BD
:101C300095FE4FF6FF70FFF77BF94FF6FF704FF4FC
:101C4000784325A2102100900020FFF7C3FF4FF436
:101C50007A7000F0B7FE4FF6FF704FF4784105231D
:101C600040F2D242CDE9001020211020FFF748FFBA
:101C70004FF47A7000F0A6FE4FF6FF704FF47841F3
:101C800003220423CDE900210290174A30210020CD
:101C9000FFF74EFE4FF47A7000F094FE4FF6FF709F
:101CA0004FF4784311A23C2100901020FFF792FFDF
:101CB0004FF47A7000F086FE4FF6FF704FF47843D1
:101CC0000EA25A2100900020FFF784FF4FF47A7093
:101CD00000F078FE0EBD000073746D333220767311
:101CE000636F646500000000B81EF742427920323D
:101CF0003032312D30312D32390000006B65696C86
:101D000035207673636F64650000000010B5012113
:101D1000034800F0B9F80121014800F0A3F810BD14
:101D2000002C014010B50121880700F0ADF858B132
:101D30000121880700F099F804480068401C034915
:101D4000086001200249086010BD00004400002026
:101D50004C00002010B50121054800F095F828B18D
:101D60000121034800F081F800F09EFE10BD000044
:101D7000000400407FB505460C4601210220FFF714
:101D800097FBADF80850ADF804400020ADF80A000C
:101D9000ADF8060001A90E4800F090F801221146A6
:101DA0000B4800F082F81D208DF8000000208DF80F
:101DB000010003208DF8020001208DF80300684621
:101DC000FFF748FA0121024800F052F87FBD0000F9
:101DD0000004004010B50121084800F055F858B142
:101DE0000121064800F041F805480068401C0449FC
:101DF000086001200349086010BD00000008004091
:101E0000500000205800002010B50121084800F0C3
:101E10003BF858B10121064800F027F80548006852
:101E2000401C0449086001200349086010BD0000FF
:101E3000000C00402C0000203400002010B50121CF
:101E4000064800F021F840B10121044800F00DF8E7
:101E500003480068401C0249086010BD00100040A3
:101E60005C000020CA4302827047CA430282704766
:101E700021B1028842F00102028004E002884FF69C
:101E8000FE731A400280704730B5024600200023DE
:101E90000024158A05EA0103958905EA010413B1B6
:101EA0000CB1012000E0002030BD1AB183890B4342
:101EB000838102E083898B438381704700220288FB
:101EC0001D4B98420ED01D4B98420BD0B0F1804F65
:101ED00008D01B4B984205D01A4B984202D01A4B9F
:101EE000984204D14FF68F731A404B881A43174B10
:101EF000984207D0164B984204D04FF6FF431A4041
:101F0000CB881A4302808B8883850B8803850A4B14
:101F100098420BD0094B984208D00E4B984205D0FE
:101F20000D4B984202D00D4B984201D10B7A03869B
:101F30000123838270470000002C014000340140DF
:101F40000004004000080040000C00400010004069
:101F5000001400400040014000440140004801409E
:101F600010B540F225510C4800F066F970B10A48EE
:101F700000F01EFAC4B22146074800F01EFA00BF66
:101F80004021054800F04BF90128F9D140210248D1
:101F900000F030F910BD0000004C004010B540F2D8
:101FA00025510C4800F048F970B10A4800F000FAD9
:101FB000C4B22146074800F000FA00BF402105489E
:101FC00000F02DF90128F9D14021024800F012F962
:101FD00010BD00000050004000BF028802F0400227
:101FE000002AFAD08180704710B504460B4604E001
:101FF00019782046FFF7F0FF5B1C18780028F7D10E
:1020000010BD000010B586B00446012144F2040062
:10201000FFF75EFA4FF40070ADF8140003208DF85E
:10202000160018208DF8170005A91C48FEF7C9FCFA
:102030004FF48060ADF8140004208DF8170005A956
:102040001648FEF7BEFC25208DF8000003208DF811
:1020500001008DF8020001208DF803006846FFF7AB
:10206000F9F801940020ADF80800ADF80A00ADF8C9
:102070000C00ADF810000C20ADF80E0001A90848C6
:1020800000F02AF9012240F22551054800F0FEF83F
:102090000121034800F0B7F806B010BD0008014068
:1020A0000038014010B540F225510C4800F0C4F84A
:1020B00070B10A4800F07CF9C4B22146074800F02C
:1020C0007CF900BF4021054800F0A9F80128F9D1AA
:1020D0004021024800F08EF810BD00000038014099
:1020E00010B540F225510C4800F0A6F870B10A482E
:1020F00000F05EF9C4B22146074800F05EF900BF67
:102100004021054800F08BF80128F9D14021024810
:1021100000F070F810BD00000044004010B586B01B
:10212000044601210820FFF7D3F901218804FFF7B5
:10213000BFF94FF48060ADF8140018208DF8170037
:1021400003208DF8160005A91E48FEF73AFC4FF44F
:102150000060ADF8140004208DF8170005A9194897
:10216000FEF72FFC01940020ADF80800ADF80A003E
:10217000ADF80C00ADF810000C20ADF80E0001A970
:10218000114800F0A9F84FF4A060FFF79BF8272052
:102190008DF8000002208DF8010003208DF8020068
:1021A00001208DF803006846FFF754F8012240F241
:1021B0002551054800F06AF80121034800F023F892
:1021C00006B010BD000C01400048004008B540F2C8
:1021D0002551074800F030F840B1054800F0E8F814
:1021E000C0B200900121684600F024FC08BD000048
:1021F0000048004001F40072B2F5007F00D100BF3A
:10220000CA430280704721B1828942F40052828120
:1022100004E082894DF6FF731A40828170470246BE
:102220000020B1F5007F00D100BF13880B400BB137
:10223000012000E00020704770B502460024002312
:102240000025002040F66A16B14200D100BFC1F35C
:10225000421501F01F03012606FA03F3012D02D1F6
:102260009689334006E0022D02D1168A334001E000
:10227000968A33400C12012606FA04F4168834407C
:1022800013B10CB1012000E0002070BDF0B5034691
:10229000002400260025002040F66A17B94200D12C
:1022A00000BF1846C1F3421401F01F06012707FAC8
:1022B00006F5012C01D10C3004E0022C01D11030C4
:1022C00000E014301AB107682F43076002E0076886
:1022D000AF430760F0BD00002DE9F04786B005462A
:1022E0000E460024A24600BFA1460027B08900B1D7
:1022F00000BF2F462C8A4CF6FF700440F088044340
:102300002C82AC894EF6F3100440B0883189084322
:10231000718908430443AC81AC8A4FF6FF40044006
:10232000B0890443AC8201A8FFF7F2F81F48874246
:1023300002D1DDF810A001E0DDF80CA0A88900F4BE
:10234000004040B10AEBCA0000EB0A1031684900B6
:10235000B0FBF1F807E00AEBCA0000EB0A103168A5
:102360008900B0FBF1F86420B8FBF0F0040120090B
:10237000642101FB1089A88900F4004040B132209B
:1023800000EBC900B0FBF1F000F00700044308E0E7
:10239000322000EB09106421B0FBF1F000F00F00D7
:1023A00004432C8106B0BDE8F087000000380140EE
:1023B00001468888C0F308007047C1F30802828094
:1023C000704700BFFEE70000002001490860704729
:1023D000082C004010B50948007800F01DF8FFF700
:1023E000F3FF0748006808B9012000E00020044915
:1023F000086004A10748FFF7F7FD10BD8A00002020
:1024000094012342575744472074657374200D0A82
:10241000000000000038014000F07F01014A116017
:1024200070470000002C00402DE9F04105462C4685
:102430004FF480511248FEF74FFB00261CE0274660
:1024400007F08007802F04D1B9010D48FEF746FB45
:1024500004E04FF400510A48FEF73EFB6006040E0C
:102460004FF480510648FEF739FB4FF48051044881
:10247000FEF732FB701CC6B2082EE0DBBDE8F0812F
:10248000000C014010B50446FEF794FC7820FFF7DD
:10249000CBFFFEF7BBFC0020FFF7C6FFFEF7B6FC44
:1024A0002046FFF7C1FFFEF7B1FCFEF79BFC10BD15
:1024B00010B50446FEF77EFC7820FFF7B5FFFEF767
:1024C000A5FC4020FFF7B0FFFEF7A0FC2046FFF779
:1024D000ABFFFEF79BFCFEF785FC10BD0FB4054B70
:1024E00010B503A9044A029800F018F810BC5DF872
:1024F00014FB0000112A0008A800002002E008C810
:10250000121F08C1002AFAD170477047002001E06D
:1025100001C1121F002AFBD1704700002DE9FF4FB7
:102520008DB00F460546002606E025280BD0DDE9D4
:102530000F1290476D1C761C28780028F5D111B039
:102540003046BDE8F08F0024A246A1460122EC49A6
:1025500000E0044315F8013F203B02FA03F0084273
:10256000F7D128782A2810D06FF02F022878A0F110
:102570003001092914D80AEB8A0102EB410144F029
:10258000020400EB010A6D1CF0E701CF5FEA000ACC
:1025900003D544F40054CAF1000A44F002046D1C4F
:1025A00028782E2817D115F8010F44F004042A28A2
:1025B0000ED06FF02F022878A0F1300109290AD837
:1025C00009EB890102EB410100EB01096D1CF2E707
:1025D00057F8049B6D1C28786C280FD006DC4C281B
:1025E00017D068280DD06A2814D104E0742810D0C0
:1025F0007A280FD10DE044F400140AE044F480146A
:1026000001E044F440146978814202D104F5801459
:102610006D1C6D1C2A786E2A1FD00CDC632A31D009
:1026200004DC002A8BD0582A11D1A3E0642A68D098
:10263000692A0CD165E0732A2ED004DC6F2A73D08E
:10264000702A04D19BE0752A6FD0782A6ED010468C
:10265000DDE90F129047761C50E1C4F302500228C6
:1026600006D0032809D0042801CF09D0066045E12F
:1026700001CFF117C0E9006140E101CF06803DE1E3
:1026800006703BE117F8040B8DF8000000208DF870
:102690000100EB46012003E057F804BB4FF0FF3088
:1026A00061074FF0000102D40DE008F101018846F6
:1026B00049450FDA8045F8DB1BF808100029F4D1F2
:1026C00008E008F1010188468142FADB1BF8081096
:1026D0000029F6D1DDE90F23AAEB08008146214647
:1026E00000F036F9304400EB080604E0DDE90F1293
:1026F0001BF8010B9047B8F10108F7D22146484674
:10270000F7E00A21C4F302534FF0000B0891022BAB
:1027100004D001CFC117032B09D00AE0FF1D27F019
:102720000707F7E8020108E032E01FE020E000B20E
:10273000C117042B01D140B2C117031E71F1000370
:1027400007DA4FF0000CD0EB0C006CEB01012D23ED
:1027500002E0230504D52B238DF82430012303E068
:10276000E30701D02023F7E7984658E00A2110E05C
:1027700010210EE010204FF0000B08900CE010210B
:102780004FF0000B44F004044FF00809089103E0F7
:1027900008214FF0000B0891C4F30253022B04D020
:1027A00001CF0021032B06D006E0FF1D27F007070D
:1027B000F7E8020103E080B2042B00D1C0B24FF071
:1027C000000823072BD5702A07D0DDF820C08CF035
:1027D000100C5CEA0B0C05D00EE040238DF8243081
:1027E000012308E050EA010306D030238DF824309D
:1027F0008DF8252002239846DDF820C08CF0080CC7
:102800005CEA0B0C0BD150EA010301D1630706D53A
:1028100030238DF824304FF00108A9F10109582A1E
:1028200004D038A20B9208AA0A920BE03AA2F9E768
:102830005B46089AFDF77CFE0B9B9B5C0A9A521E36
:102840000A92137050EA0102F2D10A98ADEB00002F
:1028500000F1200B600702D524F4803401E04FF032
:102860000109D94502DDA9EB0B0000E0002000EBD7
:102870000B0141440890AAEB010AE00306D4DDE90C
:102880000F232146504600F063F806444FF000093C
:1028900008E009A911F80900DDE90F12904709F1D4
:1028A0000109761CC145F4DBE0030CD5DDE90F23FB
:1028B0002146504600F04CF8064404E0DDE90F12D2
:1028C00030209047761C0899481E08900029F5DCB6
:1028D00008E00A980A990078491C0A91DDE90F126C
:1028E0009047761CBBF10001ABF1010BF1DC2146F6
:1028F0005046DDE90F2300F019F806446D1C1BE675
:1029000009280100303132333435363738396162C5
:102910006364656600000000303132333435363789
:102920003839414243444546000000002DE9F0415A
:10293000044600251E461746880404D405E039469F
:102940002020B0476D1C641EF9D52846BDE8F081F3
:102950002DE9F041044600251E469046C80301D5E6
:10296000302700E02027880404D505E0414638469A
:10297000B0476D1C641EF9D52846BDE8F081000003
:1029800010B56FF00400FEF7C1FE0A4800680A495E
:10299000B0FBF1F0094908700846007800EB4001EF
:1029A000C1EBC0104FF6FF7101EAC0000449088076
:1029B00010BD00006C00002000127A008C00002086
:1029C0008E0000200146114A12884A434FF0E0234E
:1029D0005A6100229A611A46126942F001021A6194
:1029E00000BF4FF0E022106900F001021AB100F4BC
:1029F0008032002AF5D04FF0E022126922F0010265
:102A00004FF0E0231A6100229A6170478E00002087
:102A100070B504460D46E1B20548FFF7CEFC00BF95
:102A200080210348FFF7FBFB0028F9D0204670BD4A
:102A30000038014070B504460D46002624B90AA0AE
:102A4000FFF74CFD701E70BD2A4621460E4800F06F
:102A500020F90646AE4205D00CA0FFF73FFD4FF02F
:102A6000FF30F0E73046EEE74552523A2067697A88
:102A700050757444617461206275662069732065C5
:102A80006D707479200A00002D0200204552523AE0
:102A9000204661696C656420746F207262577269A8
:102AA0007465200A0000000002480068401C0149CB
:102AB00008607047A400002010B540200A49086053
:102AC0000A48C860084600F0D9F818B908A0FFF70E
:102AD00005FD02E00BA0FFF701FD4FF4B2710E48B7
:102AE000FDF75BFB10BD00002D0200203D02002021
:102AF00072624372656174652053756363657373B5
:102B0000200A000072624372656174652046616943
:102B10006C64200A00000000C9000020002001E0D1
:102B2000411CC8B20A28FBDB7047000070B50446A0
:102B3000002520E004F0800018B180200F490860D3
:102B400003E080200D49091D0860FFF7E7FF4020E2
:102B50000A490860FFF7E2FF40200849091D0860A4
:102B6000072D02D18020091F08606006040EFFF7C0
:102B7000D5FF681CC5B2082DDCDB70BD100C014010
:102B800010B580200949086040200860FFF7C6FFA3
:102B900080200649091D0860FFF7C0FF4020034957
:102BA000091D0860FFF7BAFF10BD0000100C0140BE
:102BB00010B58020054908604020091F0860FFF714
:102BC000ADFF80200149091F086010BD140C0140B1
:102BD00010B580200C490860FFF7A0FF40200A498B
:102BE0000860FFF79BFF08480838006800F0800085
:102BF00008B1012400E0002440200349091D0860B9
:102C0000FFF78CFF204610BD100C0140FEF794F832
:102C100001E0FFF709F8FCE700B5024612B94FF0F2
:102C2000FF3000BD50689168884201D10020F8E76C
:102C300050689168884203D290685168401AF0E762
:102C4000104600F014F851689368C91A401AE8E772
:102C500030B5044614B94FF0FF3030BD204600F0C7
:102C600006F805462046FFF7D7FF281AF5E7014684
:102C700011B94FF0FF3070470868FCE7014611B901
:102C80004FF0FF307047C8684860C868886000200F
:102C9000F8E72DE9F04104460F461546002604B139
:102CA0001FB94FF0FF30BDE8F0812046FFF7D0FF9D
:102CB000A84202D86FF00100F5E76068A168884279
:102CC0002AD82046FFF7D3FFA168E268891A461A7E
:102CD000B54213D8A0682A463946FDF745FAA068E0
:102CE0002844A0602046FFF7C2FFE1680844A168BD
:102CF000884201D1E068A0602846D4E7A068324647
:102D00003946FDF731FAE068A060AA1BB9192046E0
:102D1000FFF7BFFF3044C6E7A0682A463946FDF7F3
:102D200023FAA0682844A0602846BCE710B51D21FE
:102D30000148FDF732FA10BDAC0000200000000091
:102D40000000000000000000000000000010101053
:102D500010101010101000001010000000006C6C1B
:102D600024240000000001000000000000242424AE
:102D700024FE48484848FC909090900000103C5435
:102D80009290503814121292547810000000225C75
:102D900094A8481010242A5254880000000030489B
:102DA0004850206E54948C888A74000000003030A3
:102DB00010100000000000000000000000040810D7
:102DC0001020202020202010100804000080402027
:102DD0002010101010101020204080000000000073
:102DE000105438103854100000000000000000108B
:102DF000101010FE10101010000000000000000065
:102E00000000000000000000101020000000000082
:102E1000000000FE000000000000000000000000B4
:102E2000000000000000000010100000000004047A
:102E30000808101020204040808000000000384426
:102E40008282828282828282443800000000107076
:102E50001010101010101010107C000000003844EA
:102E6000828204081020408284FC00000000384464
:102E70008202043804020282443800000000040C7C
:102E8000141424244444FE04040E00000000FC80BA
:102E90008080B8C4820202828478000000003C4234
:102EA0008280B8C4828282824438000000007E4260
:102EB00082040408080810101010000000003844B4
:102EC00082824438448282824438000000003844C0
:102ED00082828282463A028244380000000000006A
:102EE00010100000000010100000000000000000A2
:102EF0001010000000000010102000000000000072
:102F00000618608060180600000000000000000045
:102F10000000FE0000FE00000000000000000000B5
:102F2000C0300C020C30C0000000000000384482A9
:102F30008202040810101000101000000000384435
:102F4000829AAAAAAAAAAA9680423C00000010105F
:102F50001028282844447C4444EE00000000FC4231
:102F60004242427C4242424242FC000000003C4459
:102F70008280808080808282443800000000F84493
:102F8000424242424242424244F800000000FC44B5
:102F90004240447C4440404244FC00000000FC4469
:102FA0004240447C4440404040F000000000344C2B
:102FB000828080808E8484844C3400000000EE4443
:102FC0004444447C4444444444EE000000007C10EB
:102FD0001010101010101010107C000000003E089F
:102FE0000808080808080888887000000000EE44F7
:102FF000484850605048484444EE00000000E0401B
:10300000404040404040404244FC00000000C64474
:103010006C6C6C545454444444EE00000000CE44A4
:1030200064646454544C4C4C44E400000000384444
:103030008282828282828282443800000000F844C8
:10304000424242447840404040E0000000003844A2
:1030500082828282828282BA443C02000000F0486E
:10306000444444487048444444E6000000003C4462
:10307000828040300C0202824478000000007C54C0
:103080009210101010101010103800000000EE44C4
:103090004444444444444444443800000000EE4462
:1030A0004444442828282810101000000000EE4452
:1030B0005454545454542828282800000000EE4446
:1030C000442828101028284444EE00000000EE4454
:1030D00044282828101010101038000000007E44EA
:1030E000840808102020408284FC0000001C10107E
:1030F000101010101010101010101C000000EE44E2
:103100005454FE54545428282828000000701010ED
:1031100010101010101010101010700000304884A3
:10312000000000000000000000000000000000009F
:1031300000000000000000000000FE000040200031
:10314000000000000000000000000000000000007F
:1031500000007884047C84848C7600000000C040E9
:10316000404058644242424264580000000000005F
:1031700000003844808080804438000000000C0447
:103180000404344C848484844C3600000000000025
:103190000000788484FC808084780000000018247B
:1031A0002020F820202020202070000000000000B7
:1031B00000003A444478807C82827C000000C04059
:1031C000404058644444444444EE00000000101061
:1031D0000000301010101010103800000000101007
:1031E0000000301010101010109060000000C0405F
:1031F00040405C485060504844EE000000003010F1
:1032000010101011101010101039000000000000F4
:103210000000ACD29292929292D600000000000080
:10322000000058E44444444444EE00000000000020
:10323000000038448282828244380000000000008E
:103240000000D864424242645840E00000000000A0
:103250000000364C8484844C34040E0000000000CE
:1032600000006C30202020202070000000000000B2
:1032700000007888846018844478000000000020F2
:103280002020F8202020202024180000000000002A
:103290000000C64242424242463A0000000000009E
:1032A0000000EE4444282828101000000000000010
:1032B0000000EE4444545428282800000000000078
:1032C0000000EE442810102844EE0000000000002A
:1032D0000000EE444428281010A0C00000000000A8
:1032E00000007E448810204284FC0000000C101076
:1032F000101010601010101010100C0000101010A2
:1033000010101010101010101010100000C020200D
:1033100020202018202020202020C00000000000B5
:10332000000000728C00000000000000002000007F
:1033300000000000210000002F0000220000070014
:1033400007002300147F147F142400242A7F2A12EC
:1033500025006264081323260036495522502700B1
:1033600000050300002800001C2241002900004144
:10337000221C002A0014083E08142B0008083E08EE
:10338000082C000000A060002D0008080808082E86
:103390000000606000002F00201008040230003E92
:1033A0005149453E310000427F40003200426151A8
:1033B000494633002141454B3134001814127F1027
:1033C0003500274545453936003C4A4949303700E4
:1033D0000171090503380036494949363900064963
:1033E00049291E3A0000363600003B0000563600E0
:1033F000003C0008142241003D0014141414143E33
:103400000000412214083F00020151090640003229
:103410004959513E41007C1211127C42007F4949BA
:10342000493643003E4141412244007F4141221C34
:1034300045007F4949494146007F09090901470084
:103440003E4149497A48007F0808087F4900004109
:103450007F41004A002040413F014B007F08142279
:10346000414C007F404040404D007F020C027F4EA7
:10347000007F0408107F4F003E4141413E50007FD5
:103480000909090651003E4151215E52007F091988
:10349000294653004649494931540001017F010141
:1034A00055003F4040403F56001F2040201F57001E
:1034B0003F4038403F580063140814635900070820
:1034C0007008075A0061514945435B00007F414144
:1034D000005D000041417F005E0004020102045FC4
:1034E00000404040404060000001020400610020B4
:1034F0005454547862007F4844443863003844444C
:1035000044206400384444487F65003854545418BB
:103510006600087E090102670018A4A4A47C680064
:103520007F08040478690000447D40006A00408000
:10353000847D006B007F102844006C0000417F40B8
:10354000006D007C041804786E007C080404786F19
:103550000038444444387000FC24242418710018B6
:10356000242418FC72007C08040408730048545496
:1035700054207400043F44402075003C4040207CAF
:1035800076001C2040201C77003C4030403C7800F6
:10359000442810284479001CA0A0A07C7A00446430
:1035A000544C447C14141414141420000000000023
:1035B0000000000000000000000000210000183C96
:1035C0003C3C18181800181800000000220066661D
:1035D000662400000000000000000000002300003E
:1035E000006C6CFE6C6C6CFE6C6C000000002418AF
:1035F000187CC6C2C07C0686C67C18180000002550
:1036000000000000C2C60C183060C6860000000032
:10361000260000386C6C3876DCCCCCCC7600000010
:103620000027003030306000000000000000000083
:1036300000002800000C18303030303030180C00FA
:1036400000000029000030180C0C0C0C0C0C183079
:10365000000000002A0000000000663CFF3C6600FD
:1036600000000000002B000000000018187E181851
:103670000000000000002C0000000000000000001E
:10368000181818300000002D00000000000000FE97
:1036900000000000000000002E00000000000000FC
:1036A0000000001818000000002F000000000206B3
:1036B0000C183060C080000000003000007CC6C6DE
:1036C000CED6D6E6C6C67C00000000310000183811
:1036D000781818181818187E000000003200007CB6
:1036E000C6060C183060C0C6FE00000000330000A3
:1036F0007CC606063C060606C67C000000003400B8
:10370000000C1C3C6CCCFE0C0C0C1E0000000035A8
:103710000000FEC0C0C0FC0E0606C67C0000000013
:103720003600003860C0C0FCC6C6C6C67C000000BB
:1037300000370000FEC606060C183030303000009E
:1037400000003800007CC6C6C67CC6C6C6C67C0063
:103750000000003900007CC6C6C67E0606060C784E
:10376000000000003A0000000018180000001818BF
:1037700000000000003B00000000181800000018C6
:103780001830000000003C000000060C18306030CB
:10379000180C06000000003D000000000000FE00C4
:1037A00000FE0000000000003E0000006030180C29
:1037B000060C183060000000003F00007CC6C60CFC
:1037C00018181800181800000000400000007CC6FF
:1037D000C6DEDEDEDCC07C000000004100001038E8
:1037E0006CC6C6FEC6C6C6C600000000420000FC8D
:1037F0006666667C66666666FC0000000043000044
:103800003C66C2C0C0C0C0C2663C000000004400AC
:1038100000F86C6666666666666CF8000000004537
:103820000000FE6662687868606266FE0000000064
:10383000460000FE6662687868606060F000000024
:10384000004700003C66C2C0C0DEC6C6663A000043
:103850000000480000C6C6C6C6FEC6C6C6C6C6002C
:103860000000004900003C18181818181818183CD7
:10387000000000004A00001E0C0C0C0C0CCCCCCC40
:1038800078000000004B0000E6666C6C78786C668F
:1038900066E6000000004C0000F060606060606060
:1038A0006266FE000000004D0000C6EEFEFED6C6B9
:1038B000C6C6C6C6000000004E0000C6E6F6FEDE24
:1038C000CEC6C6C6C6000000004F0000386CC6C693
:1038D000C6C6C6C66C3800000000500000FC666614
:1038E000667C60606060F0000000005100007CC6F3
:1038F000C6C6C6C6C6D6DE7C0C0E0000520000FC52
:103900006666667C6C666666E60000000053000032
:103910007CC6C660380C06C6C67C00000000540099
:10392000007E7E5A1818181818183C000000005520
:103930000000C6C6C6C6C6C6C6C6C67C0000000015
:10394000560000C6C6C6C6C6C6C66C381000000003
:1039500000570000C6C6C6C6C6D6D6FE6C6C0000B0
:103960000000580000C6C66C6C38386C6CC6C600C7
:10397000000000590000666666663C181818183C7E
:10398000000000005A0000FEC6860C183060C2C657
:10399000FE000000005B00003C3030303030303042
:1039A000303C000000005C00000080C0E070381C6B
:1039B0000E0602000000005D00003C0C0C0C0C0C1C
:1039C0000C0C0C3C000000005E10386CC6000000BF
:1039D0000000000000000000005F00000000000088
:1039E00000000000000000FF000060303018000000
:1039F0000000000000000000000000610000000066
:103A000000780C7CCCCCCC7600000000620000E09A
:103A10006060786C66666666DC000000006300002B
:103A20000000007CC6C0C0C0C67C0000000064006E
:103A3000001C0C0C3C6CCCCCCCCC7600000000659F
:103A400000000000007CC6FEC0C0C67C0000000074
:103A5000660000386C6460F060606060F000000038
:103A60000067000000000076CCCCCCCCCC7C0CCC29
:103A70007800680000E060606C7666666666E60066
:103A80000000006900001818003818181818183CB1
:103A9000000000006A00000606000E060606060684
:103AA0000666663C006B0000E06060666C78786CCF
:103AB00066E6000000006C00003818181818181886
:103AC00018183C000000006D0000000000ECFED65D
:103AD000D6D6D6D6000000006E0000000000DC66DE
:103AE0006666666666000000006F00000000007CED
:103AF000C6C6C6C6C67C00000000700000000000FC
:103B0000DC66666666667C6060F00071000000003E
:103B10000076CCCCCCCCCC7C0C0C1E00720000000F
:103B20000000DC7662606060F0000000007300005E
:103B30000000007CC660380CC67C000000007400E9
:103B400000103030FC30303030361C000000007582
:103B50000000000000CCCCCCCCCCCC760000000027
:103B600076000000000066666666663C180000008D
:103B700000770000000000C6C6C6D6D6FE6C000066
:103B80000000780000000000C66C3838386CC600B1
:103B9000000000790000000000C6C6C6C6C6C67E8A
:103BA000060CF8007A0000000000FECC183060C659
:103BB000FE000000007B00000E181818701818187E
:103BC000180E000000007C000018181818001818C3
:103BD000181818000000007D0000701818180E1842
:103BE00018181870000000007E000076DC0000004D
:103BF000000000000000000000D2D1000000000022
:103C00000000003FE03820102030603FE02000300E
:103C1000011FFE07FC003800000000C1AA000000E0
:103C2000000000000000887E883D5024BC3C202518
:103C3000FE3E70E45805CC060200000000BBFA000E
:103C400000000000000000080008F83E9008901CEA
:103C5000903E906990099F0B0E080000000000D470
:103C6000A402027FFF06302CA218FF12C67FD61BCB
:103C7000D61AD618D618D618D41838186E78C7138E
:103C800002B3E4018000C23FFF010003A007180C4B
:103C90000C1FFE0A3403300330063006320C321893
:103CA0003F201ECDA308300DFE0C8418FE10CC382A
:103CB000FC3A8A5FFF1E031DFE18301830183018BA
:103CC0003018F01020D6B9008000C000C000C0003D
:103CD000C008C80CFC0CC00CC00CC00CC00CC00C44
:103CE000C00CC27FFF0000CDEA00300000180000C9
:103CF0001C0010080C1FFFFE1000183000103000D0
:103D00006027FFF000000000000000000C7FFFFEB5
:103D100000C60000C60000C60000C60000C60400C1
:103D200086040186040306060207FE0C03FC30002D
:103D30000020000000000000000000000000000063
:103D40000000000000000000000000000000000073
:103D50000000000000000000000000000000000063
:103D60000000000000000000000000000000000053
:103D70000000000000000000000000000000001F24
:103D8000E000003FF000003FF000001FE000018075
:103D9000060003C00F0003C00F0003C00F0003C0E4
:103DA0000F0003C00F0003C00F0003C00F0003C0CB
:103DB0000F000300030000000000000000000000EE
:103DC00000000300030003C00F0003C00F0003C086
:103DD0000F0003C00F0003C00F0003C00F0003C09B
:103DE0000F0003C00F0001800600001FE000003F2D
:103DF000F000003FF000001FE000000000000000A5
:103E00000000000080000001800000038000000727
:103E10008000000780000007800000078000000786
:103E20008000000780000007800000078000000776
:103E30008000000180000000000000000000000081
:103E400000000001800000078000000780000007DC
:103E50008000000780000007800000078000000746
:103E60008000000780000007800000038000000140
:103E70008000000080000000000000000000001F23
:103E8000E000003FF00000FFF00001FFE000000054
:103E9000060000000F0000000F0000000F000000EF
:103EA0000F0000000F0000000F0000000F000000D6
:103EB0000F00001FE300007FF800007FF800001FE4
:103EC000E0000300000003C0000003C0000003C0C6
:103ED000000003C0000003C0000003C0000003C0D6
:103EE000000003C0000001800000001FF000003F40
:103EF000F800003FFC00001FFE000000000003FF70
:103F0000800001FFC00000FFC000007F80000000B3
:103F1000180000003C0000003C0000003C000000D5
:103F20003C0000003C0000003C0000003C000000A1
:103F30003C00007F8C0001FFE00001FFF000007FEB
:103F4000800000000C0000003C0000003C0000006D
:103F50003C0000003C0000003C0000003C00000071
:103F60003C0000003C0000001800007F800000FFC3
:103F7000C00001FFC00003FF80000000000000003F
:103F8000000002000100030003000380070003C0DB
:103F90000F0003C00F0003C00F0003C00F0003C0D9
:103FA0000F0003C00F0003C00F0003C00F0003C0C9
:103FB0000F00031FE300007FF800007FFC00001FDC
:103FC000E0000000030000000F0000000F000000F0
:103FD0000F0000000F0000000F0000000F000000A5
:103FE0000F0000000F0000000F000000070000009D
:103FF0000300000001000000000000000000001F9E
:10400000FC00003FF800003FF000001FE0000180CE
:10401000000003C0000003C0000003C0000003C094
:10402000000003C0000003C0000003C0000003C084
:104030000000031FE000007FF800007FF800001F71
:10404000E0000000030000000F0000000F0000006F
:104050000F0000000F0000000F0000000F00000024
:104060000F0000000F0000000600003FE000007F8E
:10407000F00000FFF00001FFE00000000000001F62
:10408000FC00003FF800003FF000001FE00001804E
:10409000000003C0000003C0000003C0000003C014
:1040A000000003C0000003C0000003C0000003C004
:1040B0000000031FE000007FF800007FFC00001FED
:1040C000E0000300030003C00F0003C00F0003C0A3
:1040D0000F0003C00F0003C00F0003C00F0003C098
:1040E0000F0003C00F0001800600001FE000003F2A
:1040F000F000003FF000001FE0000000000007FF9C
:10410000E00003FFC00001FF880000FF180000006E
:1041100038000000780000007800000078000000FF
:1041200078000000780000007800000078000000AF
:1041300078000000180000000000000000000000EF
:104140000000000018000000780000007800000067
:10415000780000007800000078000000780000007F
:1041600078000000780000007800000038000000AF
:104170001800000008000000000000000000001F00
:10418000E000003FF000003FF000001FE000018071
:10419000060003C00F0003C00F0003C00F0003C0E0
:1041A0000F0003C00F0003C00F0003C00F0003C0C7
:1041B0000F00031FE300007FF800007FFC00001FDA
:1041C000E0000300030003C00F0003C00F0003C0A2
:1041D0000F0003C00F0003C00F0003C00F0003C097
:1041E0000F0003C00F0001800600001FE000003F29
:1041F000F000003FF000001FE00000000000001F82
:10420000E000003FF000003FF000001FE0000180F0
:10421000060003C00F0003C00F0003C00F0003C05F
:104220000F0003C00F0003C00F0003C00F0003C046
:104230000F00031FE300007FF800007FFC00001F59
:10424000E0000000030000000F0000000F0000006D
:104250000F0000000F0000000F0000000F00000022
:104260000F0000000F0000000600001FE000003FEC
:10427000F000007FF00000FFE00000000000000000
:10428000000000000000000000000000000000002E
:10429000000000000000000000000000000000001E
:1042A000000000000000000000000000000000000E
:1042B00000000000000000000000000000000000FE
:1042C0000000000000000000000000000000007876
:1042D00000000078000000780000007800000078FE
:1042E0000000007800000000000000000000000056
:1042F00000000000000000000000000000000000BE
:1043000000000000000000000000000000000000AD
:104310000000000000000000000000070000000F87
:104320008000000F8000000F8000000700000000E8
:10433000000000000000000000000000000000007D
:1043400000000000000000070000000F8000000FC8
:104350008000000F80000007000000000000000047
:10436000000000000000000000000000000000004D
:10437000000000000000000000000000000000003D
:104380000000000000000000000007C006000FE071
:10439000060000000C003018180030181800301803
:1043A000300030183000301860003008C00007C0FE
:1043B000C0000FE080000000000000000FE00006D9
:1043C00007C000063018000C3018000C3018001818
:1043D000301800303018003030180060000000C085
:1043E0000FE000C007C00000000000000000000057
:1043F00000000000000000000000000000000000BD
:1044000000000000000000000000000000000000AC
:1044100000000700E0000887FC00088E03000898F1
:10442000018007180080003000000030000000709C
:1044300000000060000000600000006000000060FC
:10444000000000600000007000000030000000303C
:1044500000000038000000180100000C03000007F5
:10446000FC000001F000000000000000000000005F
:10447000000000000000000000000000000000003C
:10448000000000000000000000000000000000002C
:10449000000000000000000000000000000000001C
:1044A000000000000000000000000000000000000C
:1044B000000000000000003FF000007FF000007FDF
:1044C000E00000FFC000000000000000000000004D
:1044D00000000000000000000000000000000000DC
:1044E00000000000000000000000000000000000CC
:1044F0000000000000000000000000B0F6102010D6
:104500002010207DFC54205420542055FC7C205049
:1045100020102017FE1C20E42040200020B2BA10FA
:1045200020104011FC110411FCFD0011FC110411BC
:10453000FC10201C20E3FE4020002000200020D1A1
:10454000A722081108111000207FFE400280041FDE
:10455000E000400180FFFE010001000100050002B3
:1045600000D4BA004078204BFE5202540461F85047
:104570000048004BFE489068905090411241124212
:104580000E4400B5E70200020002007FF042104234
:10459000107FF0421042107FF04200020802080132
:1045A000F800000000D7D37FF00020004000800119
:1045B000000200FFF80200020002000200020002F6
:1045C000000E0000000000C8AB01000100028004E2
:1045D00040082010102FE8C106010001001FF00163
:1045E00000010001007FFC0000B6AF004000407CED
:1045F00040004001FC0044FE442044204420844804
:10460000844484FD04450402280410BCBC1020101E
:1046100020102013FEFC201020102015FC188430E0
:1046200088D04810501020105051882606CAF50135
:10463000000120011001107FFC03800540054009A6
:10464000201110210841040102010001000100D2E3
:10465000BA0080404027F811400140827842481655
:10466000A81AD02350222042204250028800000085
:1046700000BEA73FE020203FE020203FE00000FDFB
:10468000F885088508FDF885088508FDF885080087
:10469000000000B2E200084F8828880AA88AA84AC9
:1046A000A80AA82AA82AA842284508848888881029
:1046B0003800000000CAD44050204820400FF800C5
:1046C00040E04027402240224022202A2833A82EC2
:1046D00018000800000000B3CC00001BF0E210221C
:1046E0001023F0F800200033F068806080A3F020F1
:1046F00080208027F800000000D0F2020001003F77
:10470000F820002FF02020224021803FF820882030
:104710009040804080838000000000D1D5200010B0
:10472000F87E20444028F87E8848A850A864A8480D
:10473000A872A884501888610800000000C9AB1056
:104740000010003FE0404080807FF0421042104265
:10475000107FF04000400840083FF800000000CC07
:10476000EE20802FF8208027F0F41027F024102767
:10477000F0241027F03410CFF802200410000000BD
:1047800000B3E404000200FFF80800104020207F7E
:10479000F0089008800880088010882088C0780081
:1047A000000000CEC4040002000200FFF810401018
:1047B000400880088005000200050008803060C0C5
:1047C0001800000000D7D604000200FFF88008801F
:1047D000083FC0008001000200FFF8020002000252
:1047E000000E0000000000CFD43FE0202020203F3A
:1047F000E0202020203FE008804890289028A00852
:10480000800880FFF800000000CABE00003FE00002
:104810000000000000FFF8020012401220221042A7
:1048200008820802000E0000000000CDBC7FF840A6
:1048300008440847C84848548843084CC87338405F
:10484000884C08430840887FF800000000C6AC0090
:10485000802080208020803FF02000200020003F2A
:10486000C02040204020404040804000000000B474
:10487000A520403840484091F07D50555055507D1E
:104880005055F054407C40545057F88C08000000BC
:1048900000C3FE2220222027F8FA2027F024102728
:1048A000F03410E7F020802FF821402220EC18008F
:1048B000000000CAE440804140F22044108BE8A090
:1048C00000F78824A827A834A8E7A824A8248825C6
:1048D000B800000000C8EB08000400040002000259
:1048E000000500050008800880104010402020408E
:1048F00010800800000000C8AB020002000500089C
:104900008010402020DFD8020002001FC0020002F9
:10491000000200FFF800000000B3CC00001BF0E232
:1049200010221023F0F800200033F068806080A38C
:10493000F02080208027F800000000BCBC208020F0
:10494000802080F7F02080208027E03220E22021A4
:1049500040208021402220EC1800000000CAF5020F
:1049600000024002200200FFF807000A800A8012BD
:10497000402220421082080200020000000000D6FF
:10498000A702000200FFF8020002007FE0102010E2
:1049900040088005000200050018C0E03800000053
:1049A00000B3D62080208023F0F880208027F828CC
:1049B000203020E7F82020222021202020E0E000E5
:1049C000000000D7A8020002007FF004000400FFEE
:1049D000F8080010003FE0002000401C80030000A9
:1049E0008000000000D7A201004080200017F000E6
:1049F0008080804080008017F010802080208040E0
:104A0000804FF800000000C5FA204024402440F404
:104A1000482450276024403440E44024402440256A
:104A2000482648E43800000000B7A20200222022F5
:104A30001044007FF8040008000FE01420244042D6
:104A400080810006C0383800000000B3C900A00013
:104A50009000807FF8408040907C90449044A04437
:104A6000A0444858A84118820800000000B9A601D7
:104A7000000100F90023F021102110211021102144
:104A8000103910C21002100410086000000000D29B
:104A9000C60000002000780CE47904516810307ED4
:104AA0006019981A3C2FE448E40838003000600090
:104AB00000D1A100000120012003FC622034200469
:104AC0002003FC240021B021202220323E18000FB8
:104AD000E00000D4F10000000010FC1304110C3DB4
:104AE000F8703E10D015907CF0503E18101BFE025E
:104AF0003000200000CFEE0000000003FE00607CCC
:104B00004012FC11041106113611241F447944008F
:104B1000C0009C01860000C4BF000000000FE03C04
:104B200018200820043E04600460047E0460042011
:104B30000C20081FF001800000B6CC000008001116
:104B4000FC103E3EF82D8C2904490409043E8C508B
:104B5000FC10881EC811FC100E0000B0B40000004C
:104B600040006012FE13023A427F4410C41BFE3C18
:104B7000987190113011A00078004C0000C8B70067
:104B800000004000F878C41F8C313821EC21264108
:104B90003A7DE2272225FA3D26012401040000B6D1
:104BA000A80000010001705FFC700420042FF801D0
:104BB000001100113821C431003F0063E04038008B
:104BC00000B3A4000000000818086008C00B001E15
:104BD00000181C7FF01000118010E01838098E0FAB
:104BE000000000B0B400000040006012FE13023A62
:104BF000427F4410C41BFE3C987190113011A000FC
:104C000078004C0000B7B50000000007F80600244B
:104C10000014F8078C04042408261825F0647C642A
:104C2000C220801FC00000BBD8000000001FF03071
:104C3000182008278C2C44284428442CC42784207E
:104C400004300C1FF803800000000000000000008A
:104C50000000000000000000000000000000000054
:104C60000000000000000000000000B4BF000000D1
:104C7000000000020100063FC00C3FE018030010D6
:104C800002003336603726203E66301C64301864DC
:104C90002031FEE03F1FC01C0C00000C0007040088
:104CA0003E07F00001C0000000000000000000000E
:104CB0000000000000C9AB00000000000001FE0081
:104CC00003E3000703000C03001C3F003BFFC03F51
:104CD00030600C30200C30200C10200C10600FFFC6
:104CE000C0083F000800000800600E3FE007FC001D
:104CF000000000000000000000000000000000CCE8
:104D0000EE00000000000000030000FFE00C07F0D0
:104D10000C06000CFF803FF0E01FC0600CFE300C62
:104D2000CC3004F83004FF2004C0201FFE603EC0D9
:104D30006001FFF001FFF000606000400000000033
:104D4000000000000000000000B3E40000000000CC
:104D50000000200000300007FFF03FFFE0030000EC
:104D60000601800C01800801C01807E00FFE7007E3
:104D7000E0000206000604000404000404000C061F
:104D8000700C07E0000000000000000000000000C0
:104D9000000000B2E200000000000000003039FC1A
:104DA000301FCC300706B00F06F01907B03137B00E
:104DB0003136F01F27F00167F001E5F001E1F00066
:104DC00041F00CF8B03CD830008C3000803000004E
:104DD00000000000000000000000000000CAD40035
:104DE00000000000000803600C03700C0330003F5B
:104DF000E0003F800801003C0180047F80047D804A
:104E00000C00800C10C00C10C00C18400C1C600F63
:104E10007E600670300000300000000000000000DE
:104E200000000000000000CEC400000000C0000030
:104E3000E00000700001FFE01FFFC0180100000348
:104E400000000600000E00001C000E1800073000D5
:104E500001E00000F00000FC00018F000303C0022D
:104E600001E0000000000000000000000000000061
:104E700000D7D6000000000000002000003F0031F5
:104E8000FFE03FC02038003030FE2033C660100203
:104E900000000C00001800001800000C0007FFE0E4
:104EA0003FFFE0000400000C00000C0000000000C8
:104EB0000000000000000000000000CFD40000004F
:104EC00000000007FF000F03C00C00401FF860182F
:104ED00000600800400E01C007FF000000000184D0
:104EE000000184001987800F8CE0078C2000CC0023
:104EF00003FFE01FFFC000000000000000000000F2
:104F00000000000000CABE0000000000000E00000B
:104F10001FFFC0007FE00000000000000000000054
:104F20000000003FC03FFFE00030000030000030D4
:104F3000000613000C13C00C18F018180018180005
:104F4000000000000000000000000000000000CD94
:104F5000BC00000000000007FF000F03801CC0C061
:104F600019FC6011C66033062033E63036FF30305E
:104F70001FF030703030FC30339F3036002010E0AE
:104F800060187C400E01C003FF00003800000000E4
:104F9000000000000000000000C6AC00000000009F
:104FA00000081800180800180800180800180C203D
:104FB0001FFFF01FF80018000010000010F8001F7D
:104FC000FE001E0300100300100300100300100376
:104FD00000180200000000000000000000000000B7
:104FE000000000CFD400000000000007FF000F0306
:104FF000C00C00401FF8601800600800400E01C09F
:1050000007FF000000000184000184001987800F61
:105010008CE0078C2000CC0003FFE01FFFC00000E5
:1050200000000000000000000000000000CABE00F8
:1050300000000000000E00001FFFC0007FE0000025
:1050400000000000000000000000003FC03FFFE043
:105050000030000030000030000613000C13C00CBC
:1050600018F01818001818000000000000000000D8
:1050700000000000000000B4A500000000000006D1
:1050800001800FC1801E6180304FC020CFE0078DAE
:10509000303FC9303379303379303FFB3037FF2030
:1050A0003267E03FE3803FE3C03263603267F03055
:1050B0004FB00000000000000000000000000000F1
:1050C00000C3FE0000000000000030C000FFF00C34
:1050D00079C00C1F800C7FE03FE0600CC0300CFCFE
:1050E0003004C03007C0301E60603C3FC0041C006C
:1050F000047FE000FFE00030C000606000000000BE
:105100000000000000000000000000CAE4000000F1
:105110000000000C03800C0FC0081C703F70001FC3
:105120009FC0101FC0100000367C3017E6301FE310
:10513000B0067FB00277F007E3F03F7FF01336F060
:1051400003263003263000000000000000000000AD
:105150000000000000C8EB00000000000006000096
:1051600003800001C00000E0000070000078000033
:10517000CC0000C6000183000301800700C00600C8
:10518000E00C007018003018000030000000000033
:10519000000000000000000000000000000000000F
:1051A00000000000000000000000000000000000FF
:1051B00000000000000000000000000000000000EF
:1051C00000000000000000000000000000000000DF
:1051D00000000000000000000000000000000000CF
:1051E0000000000000000000000000000C52000859
:1051F00000000020AC000000FC240008B8520008A9
:10520000AC000020D40500000C25000800000000C0
:10521000000000000000000000000000000000008E
:10522000000000000000000000000000000000007E
:10523000000000000000000000000000000000006E
:10524000000000000000000000000000000000005E
:10525000000000000000000000000000000000004E
:10526000000000000000000000000000000000003E
:10527000000000000000000000A24A04000000003E
:1052800000000000010203040607080900010203F0
:105290000405060708097F00000000000000000068
:1052A00001020304010203040607080902040608B8
:0852B0000000000000000000F6
:0400000508000145A9
:00000001FF
